{
  "_format": "hh-sol-artifact-1",
  "contractName": "EpicGame",
  "sourceName": "contracts/EpicGame.sol",
  "abi": [
    {
      "inputs": [
        {
          "internalType": "string[]",
          "name": "characterNames",
          "type": "string[]"
        },
        {
          "internalType": "string[]",
          "name": "characterImageURIs",
          "type": "string[]"
        },
        {
          "internalType": "string[]",
          "name": "characterClass",
          "type": "string[]"
        },
        {
          "internalType": "uint256[]",
          "name": "characterHp",
          "type": "uint256[]"
        },
        {
          "internalType": "uint256[]",
          "name": "characterDmg",
          "type": "uint256[]"
        },
        {
          "internalType": "uint256[]",
          "name": "characterDodge",
          "type": "uint256[]"
        },
        {
          "internalType": "string[]",
          "name": "enemyInfo",
          "type": "string[]"
        },
        {
          "internalType": "uint256[]",
          "name": "enemyHp",
          "type": "uint256[]"
        },
        {
          "internalType": "uint256",
          "name": "enemyDmg",
          "type": "uint256"
        },
        {
          "internalType": "uint256",
          "name": "enemyDodgeChance",
          "type": "uint256"
        }
      ],
      "stateMutability": "nonpayable",
      "type": "constructor"
    },
    {
      "anonymous": false,
      "inputs": [
        {
          "indexed": true,
          "internalType": "address",
          "name": "owner",
          "type": "address"
        },
        {
          "indexed": true,
          "internalType": "address",
          "name": "approved",
          "type": "address"
        },
        {
          "indexed": true,
          "internalType": "uint256",
          "name": "tokenId",
          "type": "uint256"
        }
      ],
      "name": "Approval",
      "type": "event"
    },
    {
      "anonymous": false,
      "inputs": [
        {
          "indexed": true,
          "internalType": "address",
          "name": "owner",
          "type": "address"
        },
        {
          "indexed": true,
          "internalType": "address",
          "name": "operator",
          "type": "address"
        },
        {
          "indexed": false,
          "internalType": "bool",
          "name": "approved",
          "type": "bool"
        }
      ],
      "name": "ApprovalForAll",
      "type": "event"
    },
    {
      "anonymous": false,
      "inputs": [
        {
          "indexed": false,
          "internalType": "uint256",
          "name": "newEnemyHp",
          "type": "uint256"
        },
        {
          "indexed": false,
          "internalType": "uint256",
          "name": "newPlayerHp",
          "type": "uint256"
        }
      ],
      "name": "AttackComplete",
      "type": "event"
    },
    {
      "anonymous": false,
      "inputs": [
        {
          "indexed": false,
          "internalType": "address",
          "name": "sender",
          "type": "address"
        },
        {
          "indexed": false,
          "internalType": "uint256",
          "name": "tokenId",
          "type": "uint256"
        },
        {
          "indexed": false,
          "internalType": "uint256",
          "name": "characterIndex",
          "type": "uint256"
        }
      ],
      "name": "NFTMinted",
      "type": "event"
    },
    {
      "anonymous": false,
      "inputs": [
        {
          "indexed": true,
          "internalType": "address",
          "name": "from",
          "type": "address"
        },
        {
          "indexed": true,
          "internalType": "address",
          "name": "to",
          "type": "address"
        },
        {
          "indexed": true,
          "internalType": "uint256",
          "name": "tokenId",
          "type": "uint256"
        }
      ],
      "name": "Transfer",
      "type": "event"
    },
    {
      "inputs": [
        {
          "internalType": "address",
          "name": "to",
          "type": "address"
        },
        {
          "internalType": "uint256",
          "name": "tokenId",
          "type": "uint256"
        }
      ],
      "name": "approve",
      "outputs": [],
      "stateMutability": "nonpayable",
      "type": "function"
    },
    {
      "inputs": [],
      "name": "attackEnemy",
      "outputs": [],
      "stateMutability": "nonpayable",
      "type": "function"
    },
    {
      "inputs": [
        {
          "internalType": "address",
          "name": "owner",
          "type": "address"
        }
      ],
      "name": "balanceOf",
      "outputs": [
        {
          "internalType": "uint256",
          "name": "",
          "type": "uint256"
        }
      ],
      "stateMutability": "view",
      "type": "function"
    },
    {
      "inputs": [],
      "name": "checkIfUserHasNFT",
      "outputs": [
        {
          "components": [
            {
              "internalType": "uint256",
              "name": "characterIndex",
              "type": "uint256"
            },
            {
              "internalType": "string",
              "name": "name",
              "type": "string"
            },
            {
              "internalType": "string",
              "name": "image",
              "type": "string"
            },
            {
              "internalType": "string",
              "name": "charClass",
              "type": "string"
            },
            {
              "internalType": "uint256",
              "name": "hp",
              "type": "uint256"
            },
            {
              "internalType": "uint256",
              "name": "maxHp",
              "type": "uint256"
            },
            {
              "internalType": "uint256",
              "name": "attackDmg",
              "type": "uint256"
            },
            {
              "internalType": "uint256",
              "name": "exp",
              "type": "uint256"
            },
            {
              "internalType": "uint256",
              "name": "maxExp",
              "type": "uint256"
            },
            {
              "internalType": "uint256",
              "name": "lvl",
              "type": "uint256"
            },
            {
              "internalType": "uint256",
              "name": "dodgeChance",
              "type": "uint256"
            }
          ],
          "internalType": "struct EpicGame.CharacterAttributes",
          "name": "",
          "type": "tuple"
        }
      ],
      "stateMutability": "view",
      "type": "function"
    },
    {
      "inputs": [],
      "name": "enemy",
      "outputs": [
        {
          "internalType": "string",
          "name": "name",
          "type": "string"
        },
        {
          "internalType": "string",
          "name": "image",
          "type": "string"
        },
        {
          "internalType": "uint256",
          "name": "hp",
          "type": "uint256"
        },
        {
          "internalType": "uint256",
          "name": "maxHp",
          "type": "uint256"
        },
        {
          "internalType": "uint256",
          "name": "attackDmg",
          "type": "uint256"
        },
        {
          "internalType": "uint256",
          "name": "dodgeChance",
          "type": "uint256"
        }
      ],
      "stateMutability": "view",
      "type": "function"
    },
    {
      "inputs": [],
      "name": "getAllDefaultCharacters",
      "outputs": [
        {
          "components": [
            {
              "internalType": "uint256",
              "name": "characterIndex",
              "type": "uint256"
            },
            {
              "internalType": "string",
              "name": "name",
              "type": "string"
            },
            {
              "internalType": "string",
              "name": "image",
              "type": "string"
            },
            {
              "internalType": "string",
              "name": "charClass",
              "type": "string"
            },
            {
              "internalType": "uint256",
              "name": "hp",
              "type": "uint256"
            },
            {
              "internalType": "uint256",
              "name": "maxHp",
              "type": "uint256"
            },
            {
              "internalType": "uint256",
              "name": "attackDmg",
              "type": "uint256"
            },
            {
              "internalType": "uint256",
              "name": "exp",
              "type": "uint256"
            },
            {
              "internalType": "uint256",
              "name": "maxExp",
              "type": "uint256"
            },
            {
              "internalType": "uint256",
              "name": "lvl",
              "type": "uint256"
            },
            {
              "internalType": "uint256",
              "name": "dodgeChance",
              "type": "uint256"
            }
          ],
          "internalType": "struct EpicGame.CharacterAttributes[]",
          "name": "",
          "type": "tuple[]"
        }
      ],
      "stateMutability": "view",
      "type": "function"
    },
    {
      "inputs": [
        {
          "internalType": "uint256",
          "name": "tokenId",
          "type": "uint256"
        }
      ],
      "name": "getApproved",
      "outputs": [
        {
          "internalType": "address",
          "name": "",
          "type": "address"
        }
      ],
      "stateMutability": "view",
      "type": "function"
    },
    {
      "inputs": [],
      "name": "getEnemy",
      "outputs": [
        {
          "components": [
            {
              "internalType": "string",
              "name": "name",
              "type": "string"
            },
            {
              "internalType": "string",
              "name": "image",
              "type": "string"
            },
            {
              "internalType": "uint256",
              "name": "hp",
              "type": "uint256"
            },
            {
              "internalType": "uint256",
              "name": "maxHp",
              "type": "uint256"
            },
            {
              "internalType": "uint256",
              "name": "attackDmg",
              "type": "uint256"
            },
            {
              "internalType": "uint256",
              "name": "dodgeChance",
              "type": "uint256"
            }
          ],
          "internalType": "struct EpicGame.Enemy",
          "name": "",
          "type": "tuple"
        }
      ],
      "stateMutability": "view",
      "type": "function"
    },
    {
      "inputs": [
        {
          "internalType": "address",
          "name": "owner",
          "type": "address"
        },
        {
          "internalType": "address",
          "name": "operator",
          "type": "address"
        }
      ],
      "name": "isApprovedForAll",
      "outputs": [
        {
          "internalType": "bool",
          "name": "",
          "type": "bool"
        }
      ],
      "stateMutability": "view",
      "type": "function"
    },
    {
      "inputs": [
        {
          "internalType": "uint256",
          "name": "_characterIndex",
          "type": "uint256"
        }
      ],
      "name": "mintCharacterNFT",
      "outputs": [],
      "stateMutability": "nonpayable",
      "type": "function"
    },
    {
      "inputs": [],
      "name": "name",
      "outputs": [
        {
          "internalType": "string",
          "name": "",
          "type": "string"
        }
      ],
      "stateMutability": "view",
      "type": "function"
    },
    {
      "inputs": [
        {
          "internalType": "uint256",
          "name": "",
          "type": "uint256"
        }
      ],
      "name": "nftHolderAttributes",
      "outputs": [
        {
          "internalType": "uint256",
          "name": "characterIndex",
          "type": "uint256"
        },
        {
          "internalType": "string",
          "name": "name",
          "type": "string"
        },
        {
          "internalType": "string",
          "name": "image",
          "type": "string"
        },
        {
          "internalType": "string",
          "name": "charClass",
          "type": "string"
        },
        {
          "internalType": "uint256",
          "name": "hp",
          "type": "uint256"
        },
        {
          "internalType": "uint256",
          "name": "maxHp",
          "type": "uint256"
        },
        {
          "internalType": "uint256",
          "name": "attackDmg",
          "type": "uint256"
        },
        {
          "internalType": "uint256",
          "name": "exp",
          "type": "uint256"
        },
        {
          "internalType": "uint256",
          "name": "maxExp",
          "type": "uint256"
        },
        {
          "internalType": "uint256",
          "name": "lvl",
          "type": "uint256"
        },
        {
          "internalType": "uint256",
          "name": "dodgeChance",
          "type": "uint256"
        }
      ],
      "stateMutability": "view",
      "type": "function"
    },
    {
      "inputs": [
        {
          "internalType": "address",
          "name": "",
          "type": "address"
        }
      ],
      "name": "nftHolders",
      "outputs": [
        {
          "internalType": "uint256",
          "name": "",
          "type": "uint256"
        }
      ],
      "stateMutability": "view",
      "type": "function"
    },
    {
      "inputs": [
        {
          "internalType": "uint256",
          "name": "tokenId",
          "type": "uint256"
        }
      ],
      "name": "ownerOf",
      "outputs": [
        {
          "internalType": "address",
          "name": "",
          "type": "address"
        }
      ],
      "stateMutability": "view",
      "type": "function"
    },
    {
      "inputs": [
        {
          "internalType": "address",
          "name": "from",
          "type": "address"
        },
        {
          "internalType": "address",
          "name": "to",
          "type": "address"
        },
        {
          "internalType": "uint256",
          "name": "tokenId",
          "type": "uint256"
        }
      ],
      "name": "safeTransferFrom",
      "outputs": [],
      "stateMutability": "nonpayable",
      "type": "function"
    },
    {
      "inputs": [
        {
          "internalType": "address",
          "name": "from",
          "type": "address"
        },
        {
          "internalType": "address",
          "name": "to",
          "type": "address"
        },
        {
          "internalType": "uint256",
          "name": "tokenId",
          "type": "uint256"
        },
        {
          "internalType": "bytes",
          "name": "_data",
          "type": "bytes"
        }
      ],
      "name": "safeTransferFrom",
      "outputs": [],
      "stateMutability": "nonpayable",
      "type": "function"
    },
    {
      "inputs": [
        {
          "internalType": "address",
          "name": "operator",
          "type": "address"
        },
        {
          "internalType": "bool",
          "name": "approved",
          "type": "bool"
        }
      ],
      "name": "setApprovalForAll",
      "outputs": [],
      "stateMutability": "nonpayable",
      "type": "function"
    },
    {
      "inputs": [
        {
          "internalType": "bytes4",
          "name": "interfaceId",
          "type": "bytes4"
        }
      ],
      "name": "supportsInterface",
      "outputs": [
        {
          "internalType": "bool",
          "name": "",
          "type": "bool"
        }
      ],
      "stateMutability": "view",
      "type": "function"
    },
    {
      "inputs": [],
      "name": "symbol",
      "outputs": [
        {
          "internalType": "string",
          "name": "",
          "type": "string"
        }
      ],
      "stateMutability": "view",
      "type": "function"
    },
    {
      "inputs": [
        {
          "internalType": "uint256",
          "name": "_tokenId",
          "type": "uint256"
        }
      ],
      "name": "tokenURI",
      "outputs": [
        {
          "internalType": "string",
          "name": "",
          "type": "string"
        }
      ],
      "stateMutability": "view",
      "type": "function"
    },
    {
      "inputs": [
        {
          "internalType": "address",
          "name": "from",
          "type": "address"
        },
        {
          "internalType": "address",
          "name": "to",
          "type": "address"
        },
        {
          "internalType": "uint256",
          "name": "tokenId",
          "type": "uint256"
        }
      ],
      "name": "transferFrom",
      "outputs": [],
      "stateMutability": "nonpayable",
      "type": "function"
    }
  ],
  "bytecode": "0x60806040523480156200001157600080fd5b506040516200660038038062006600833981810160405281019062000037919062000d50565b6040518060400160405280600981526020017f53696d706c6552504700000000000000000000000000000000000000000000008152506040518060400160405280600481526020017f534d504c000000000000000000000000000000000000000000000000000000008152508160009080519060200190620000bb92919062000ab8565b508060019080519060200190620000d492919062000ab8565b5050506040518060c00160405280856000815181106200011d577f4e487b7100000000000000000000000000000000000000000000000000000000600052603260045260246000fd5b602002602001015181526020018560018151811062000165577f4e487b7100000000000000000000000000000000000000000000000000000000600052603260045260246000fd5b6020026020010151815260200184600081518110620001ad577f4e487b7100000000000000000000000000000000000000000000000000000000600052603260045260246000fd5b6020026020010151815260200184600181518110620001f5577f4e487b7100000000000000000000000000000000000000000000000000000000600052603260045260246000fd5b6020026020010151815260200183815260200182815250600960008201518160000190805190602001906200022c92919062000ab8565b5060208201518160010190805190602001906200024b92919062000ab8565b5060408201518160020155606082015181600301556080820151816004015560a08201518160050155905050620003d86040518060600160405280602b8152602001620065d5602b913960096000018054620002a79062001132565b80601f0160208091040260200160405190810160405280929190818152602001828054620002d59062001132565b8015620003265780601f10620002fa5761010080835404028352916020019162000326565b820191906000526020600020905b8154815290600101906020018083116200030857829003601f168201915b505050505060096002015460096001018054620003439062001132565b80601f0160208091040260200160405190810160405280929190818152602001828054620003719062001132565b8015620003c25780601f106200039657610100808354040283529160200191620003c2565b820191906000526020600020905b815481529060010190602001808311620003a457829003601f168201915b5050505050620009cd60201b6200226c1760201c565b60005b8a51811015620009a55760076040518061016001604052808381526020018d848151811062000433577f4e487b7100000000000000000000000000000000000000000000000000000000600052603260045260246000fd5b602002602001015181526020018c84815181106200047a577f4e487b7100000000000000000000000000000000000000000000000000000000600052603260045260246000fd5b602002602001015181526020018b8481518110620004c1577f4e487b7100000000000000000000000000000000000000000000000000000000600052603260045260246000fd5b602002602001015181526020018a848151811062000508577f4e487b7100000000000000000000000000000000000000000000000000000000600052603260045260246000fd5b602002602001015181526020018a84815181106200054f577f4e487b7100000000000000000000000000000000000000000000000000000000600052603260045260246000fd5b6020026020010151815260200189848151811062000596577f4e487b7100000000000000000000000000000000000000000000000000000000600052603260045260246000fd5b60200260200101518152602001600081526020016064815260200160018152602001888481518110620005f2577f4e487b7100000000000000000000000000000000000000000000000000000000600052603260045260246000fd5b602002602001015181525090806001815401808255809150506001900390600052602060002090600b02016000909190919091506000820151816000015560208201518160010190805190602001906200064e92919062000ab8565b5060408201518160020190805190602001906200066d92919062000ab8565b5060608201518160030190805190602001906200068c92919062000ab8565b506080820151816004015560a0820151816005015560c0820151816006015560e082015181600701556101008201518160080155610120820151816009015561014082015181600a0155505060006007828154811062000715577f4e487b7100000000000000000000000000000000000000000000000000000000600052603260045260246000fd5b90600052602060002090600b020160405180610160016040529081600082015481526020016001820180546200074b9062001132565b80601f0160208091040260200160405190810160405280929190818152602001828054620007799062001132565b8015620007ca5780601f106200079e57610100808354040283529160200191620007ca565b820191906000526020600020905b815481529060010190602001808311620007ac57829003601f168201915b50505050508152602001600282018054620007e59062001132565b80601f0160208091040260200160405190810160405280929190818152602001828054620008139062001132565b8015620008645780601f10620008385761010080835404028352916020019162000864565b820191906000526020600020905b8154815290600101906020018083116200084657829003601f168201915b505050505081526020016003820180546200087f9062001132565b80601f0160208091040260200160405190810160405280929190818152602001828054620008ad9062001132565b8015620008fe5780601f10620008d257610100808354040283529160200191620008fe565b820191906000526020600020905b815481529060010190602001808311620008e057829003601f168201915b50505050508152602001600482015481526020016005820154815260200160068201548152602001600782015481526020016008820154815260200160098201548152602001600a8201548152505090506200098d604051806060016040528060278152602001620065ae60279139826020015183608001518460400151620009cd60201b6200226c1760201c565b506001816200099d919062001095565b9050620003db565b50620009bd600662000a7960201b6200230e1760201c565b5050505050505050505062001256565b62000a7384848484604051602401620009ea949392919062000f5a565b6040516020818303038152906040527f8d142cdd000000000000000000000000000000000000000000000000000000007bffffffffffffffffffffffffffffffffffffffffffffffffffffffff19166020820180517bffffffffffffffffffffffffffffffffffffffffffffffffffffffff838183161783525050505062000a8f60201b60201c565b50505050565b6001816000016000828254019250508190555050565b60008151905060006a636f6e736f6c652e6c6f679050602083016000808483855afa5050505050565b82805462000ac69062001132565b90600052602060002090601f01602090048101928262000aea576000855562000b36565b82601f1062000b0557805160ff191683800117855562000b36565b8280016001018555821562000b36579182015b8281111562000b3557825182559160200191906001019062000b18565b5b50905062000b45919062000b49565b5090565b5b8082111562000b6457600081600090555060010162000b4a565b5090565b600062000b7f62000b798462000fe5565b62000fbc565b9050808382526020820190508285602086028201111562000b9f57600080fd5b60005b8581101562000bee57815167ffffffffffffffff81111562000bc357600080fd5b80860162000bd2898262000d0c565b8552602085019450602084019350505060018101905062000ba2565b5050509392505050565b600062000c0f62000c098462001014565b62000fbc565b9050808382526020820190508285602086028201111562000c2f57600080fd5b60005b8581101562000c63578162000c48888262000d39565b84526020840193506020830192505060018101905062000c32565b5050509392505050565b600062000c8462000c7e8462001043565b62000fbc565b90508281526020810184848401111562000c9d57600080fd5b62000caa848285620010fc565b509392505050565b600082601f83011262000cc457600080fd5b815162000cd684826020860162000b68565b91505092915050565b600082601f83011262000cf157600080fd5b815162000d0384826020860162000bf8565b91505092915050565b600082601f83011262000d1e57600080fd5b815162000d3084826020860162000c6d565b91505092915050565b60008151905062000d4a816200123c565b92915050565b6000806000806000806000806000806101408b8d03121562000d7157600080fd5b60008b015167ffffffffffffffff81111562000d8c57600080fd5b62000d9a8d828e0162000cb2565b9a505060208b015167ffffffffffffffff81111562000db857600080fd5b62000dc68d828e0162000cb2565b99505060408b015167ffffffffffffffff81111562000de457600080fd5b62000df28d828e0162000cb2565b98505060608b015167ffffffffffffffff81111562000e1057600080fd5b62000e1e8d828e0162000cdf565b97505060808b015167ffffffffffffffff81111562000e3c57600080fd5b62000e4a8d828e0162000cdf565b96505060a08b015167ffffffffffffffff81111562000e6857600080fd5b62000e768d828e0162000cdf565b95505060c08b015167ffffffffffffffff81111562000e9457600080fd5b62000ea28d828e0162000cb2565b94505060e08b015167ffffffffffffffff81111562000ec057600080fd5b62000ece8d828e0162000cdf565b93505061010062000ee28d828e0162000d39565b92505061012062000ef68d828e0162000d39565b9150509295989b9194979a5092959850565b600062000f158262001079565b62000f21818562001084565b935062000f33818560208601620010fc565b62000f3e816200122b565b840191505092915050565b62000f5481620010f2565b82525050565b6000608082019050818103600083015262000f76818762000f08565b9050818103602083015262000f8c818662000f08565b905062000f9d604083018562000f49565b818103606083015262000fb1818462000f08565b905095945050505050565b600062000fc862000fdb565b905062000fd6828262001168565b919050565b6000604051905090565b600067ffffffffffffffff821115620010035762001002620011fc565b5b602082029050602081019050919050565b600067ffffffffffffffff821115620010325762001031620011fc565b5b602082029050602081019050919050565b600067ffffffffffffffff821115620010615762001060620011fc565b5b6200106c826200122b565b9050602081019050919050565b600081519050919050565b600082825260208201905092915050565b6000620010a282620010f2565b9150620010af83620010f2565b9250827fffffffffffffffffffffffffffffffffffffffffffffffffffffffffffffffff03821115620010e757620010e66200119e565b5b828201905092915050565b6000819050919050565b60005b838110156200111c578082015181840152602081019050620010ff565b838111156200112c576000848401525b50505050565b600060028204905060018216806200114b57607f821691505b60208210811415620011625762001161620011cd565b5b50919050565b62001173826200122b565b810181811067ffffffffffffffff82111715620011955762001194620011fc565b5b80604052505050565b7f4e487b7100000000000000000000000000000000000000000000000000000000600052601160045260246000fd5b7f4e487b7100000000000000000000000000000000000000000000000000000000600052602260045260246000fd5b7f4e487b7100000000000000000000000000000000000000000000000000000000600052604160045260246000fd5b6000601f19601f8301169050919050565b6200124781620010f2565b81146200125357600080fd5b50565b61534880620012666000396000f3fe608060405234801561001057600080fd5b50600436106101375760003560e01c80637df124a1116100b8578063b88d4fde1161007c578063b88d4fde1461035d578063b953084e14610379578063c87b56dd14610397578063c8cf27f4146103c7578063e985e9c5146103e5578063f8b81ef71461041557610137565b80637df124a11461029b57806385c09a79146102cb57806395d89b41146102e957806398da4c9514610307578063a22cb4651461034157610137565b806323b872dd116100ff57806323b872dd146101f957806342842e0e146102155780636352211e1461023157806367f9453c1461026157806370a082311461026b57610137565b806301ffc9a71461013c57806306fdde031461016c578063081812fc1461018a578063095ea7b3146101ba578063185f2e41146101d6575b600080fd5b6101566004803603810190610151919061370a565b610431565b6040516101639190614160565b60405180910390f35b610174610513565b604051610181919061417b565b60405180910390f35b6101a4600480360381019061019f919061375c565b6105a5565b6040516101b191906140a0565b60405180910390f35b6101d460048036038101906101cf91906136ce565b61062a565b005b6101de610742565b6040516101f09695949392919061424a565b60405180910390f35b610213600480360381019061020e91906135c8565b61087c565b005b61022f600480360381019061022a91906135c8565b6108dc565b005b61024b6004803603810190610246919061375c565b6108fc565b60405161025891906140a0565b60405180910390f35b6102696109ae565b005b61028560048036038101906102809190613563565b610e24565b604051610292919061454b565b60405180910390f35b6102b560048036038101906102b09190613563565b610edc565b6040516102c2919061454b565b60405180910390f35b6102d3610ef4565b6040516102e09190614529565b60405180910390f35b6102f161105a565b6040516102fe919061417b565b60405180910390f35b610321600480360381019061031c919061375c565b6110ec565b6040516103389b9a99989796959493929190614566565b60405180910390f35b61035b60048036038101906103569190613692565b6112de565b005b61037760048036038101906103729190613617565b6112f4565b005b610381611356565b60405161038e919061413e565b60405180910390f35b6103b160048036038101906103ac919061375c565b6115bc565b6040516103be919061417b565b60405180910390f35b6103cf6118eb565b6040516103dc9190614507565b60405180910390f35b6103ff60048036038101906103fa919061358c565b611b7e565b60405161040c9190614160565b60405180910390f35b61042f600480360381019061042a919061375c565b611c12565b005b60007f80ac58cd000000000000000000000000000000000000000000000000000000007bffffffffffffffffffffffffffffffffffffffffffffffffffffffff1916827bffffffffffffffffffffffffffffffffffffffffffffffffffffffff191614806104fc57507f5b5e139f000000000000000000000000000000000000000000000000000000007bffffffffffffffffffffffffffffffffffffffffffffffffffffffff1916827bffffffffffffffffffffffffffffffffffffffffffffffffffffffff1916145b8061050c575061050b82612324565b5b9050919050565b606060008054610522906148fd565b80601f016020809104026020016040519081016040528092919081815260200182805461054e906148fd565b801561059b5780601f106105705761010080835404028352916020019161059b565b820191906000526020600020905b81548152906001019060200180831161057e57829003601f168201915b5050505050905090565b60006105b08261238e565b6105ef576040517f08c379a00000000000000000000000000000000000000000000000000000000081526004016105e6906144a7565b60405180910390fd5b6004600083815260200190815260200160002060009054906101000a900473ffffffffffffffffffffffffffffffffffffffff169050919050565b6000610635826108fc565b90508073ffffffffffffffffffffffffffffffffffffffff168373ffffffffffffffffffffffffffffffffffffffff1614156106a6576040517f08c379a000000000000000000000000000000000000000000000000000000000815260040161069d906144c7565b60405180910390fd5b8073ffffffffffffffffffffffffffffffffffffffff166106c56123fa565b73ffffffffffffffffffffffffffffffffffffffff1614806106f457506106f3816106ee6123fa565b611b7e565b5b610733576040517f08c379a000000000000000000000000000000000000000000000000000000000815260040161072a90614407565b60405180910390fd5b61073d8383612402565b505050565b6009806000018054610753906148fd565b80601f016020809104026020016040519081016040528092919081815260200182805461077f906148fd565b80156107cc5780601f106107a1576101008083540402835291602001916107cc565b820191906000526020600020905b8154815290600101906020018083116107af57829003601f168201915b5050505050908060010180546107e1906148fd565b80601f016020809104026020016040519081016040528092919081815260200182805461080d906148fd565b801561085a5780601f1061082f5761010080835404028352916020019161085a565b820191906000526020600020905b81548152906001019060200180831161083d57829003601f168201915b5050505050908060020154908060030154908060040154908060050154905086565b61088d6108876123fa565b826124bb565b6108cc576040517f08c379a00000000000000000000000000000000000000000000000000000000081526004016108c3906144e7565b60405180910390fd5b6108d7838383612599565b505050565b6108f7838383604051806020016040528060008152506112f4565b505050565b6000806002600084815260200190815260200160002060009054906101000a900473ffffffffffffffffffffffffffffffffffffffff169050600073ffffffffffffffffffffffffffffffffffffffff168173ffffffffffffffffffffffffffffffffffffffff1614156109a5576040517f08c379a000000000000000000000000000000000000000000000000000000000815260040161099c90614447565b60405180910390fd5b80915050919050565b6000600f60003373ffffffffffffffffffffffffffffffffffffffff1673ffffffffffffffffffffffffffffffffffffffff1681526020019081526020016000205490506000600860008381526020019081526020016000209050610ac16040518060600160405280603c81526020016152d7603c9139826001018054610a34906148fd565b80601f0160208091040260200160405190810160405280929190818152602001828054610a60906148fd565b8015610aad5780601f10610a8257610100808354040283529160200191610aad565b820191906000526020600020905b815481529060010190602001808311610a9057829003601f168201915b505050505083600401548460060154612800565b610b996040518060400160405280601c81526020017f426f7373202573206861617320257320485020616e642025732041440000000081525060096000018054610b0a906148fd565b80601f0160208091040260200160405190810160405280929190818152602001828054610b36906148fd565b8015610b835780601f10610b5857610100808354040283529160200191610b83565b820191906000526020600020905b815481529060010190602001808311610b6657829003601f168201915b5050505050600960020154600960040154612800565b6000816004015411610be0576040517f08c379a0000000000000000000000000000000000000000000000000000000008152600401610bd790614327565b60405180910390fd5b600060096002015411610c28576040517f08c379a0000000000000000000000000000000000000000000000000000000008152600401610c1f90614487565b60405180910390fd5b80600601546009600201541015610c7457600060096002018190555060328160090154610c5591906147b9565b816007016000828254610c689190614732565b92505081905550610cbe565b8060060154600960020154610c899190614813565b60096002018190555060198160090154610ca391906147b9565b816007016000828254610cb69190614732565b925050819055505b8060080154816007015410610d5357806009016000815480929190610ce290614960565b919050555080600801548160070154610cfb91906149a9565b816007018190555080600901548160080154610d1791906147b9565b816008018190555080600501548160040181905550610d526040518060600160405280603781526020016151dd6037913982600401546128a2565b5b60096004015481600401541015610d735760008160040181905550610d91565b6009600401548160040154610d889190614813565b81600401819055505b610db86040518060600160405280602a8152602001615254602a91396009600201546128a2565b610dde6040518060600160405280602b81526020016152ac602b913982600401546128a2565b7f838ab28464562786a6c4ab2311964b82fa60bd9b14aa7e856af1f3f18d41a4146009600201548260040154604051610e18929190614626565b60405180910390a15050565b60008073ffffffffffffffffffffffffffffffffffffffff168273ffffffffffffffffffffffffffffffffffffffff161415610e95576040517f08c379a0000000000000000000000000000000000000000000000000000000008152600401610e8c90614427565b60405180910390fd5b600360008373ffffffffffffffffffffffffffffffffffffffff1673ffffffffffffffffffffffffffffffffffffffff168152602001908152602001600020549050919050565b600f6020528060005260406000206000915090505481565b610efc61335f565b60096040518060c0016040529081600082018054610f19906148fd565b80601f0160208091040260200160405190810160405280929190818152602001828054610f45906148fd565b8015610f925780601f10610f6757610100808354040283529160200191610f92565b820191906000526020600020905b815481529060010190602001808311610f7557829003601f168201915b50505050508152602001600182018054610fab906148fd565b80601f0160208091040260200160405190810160405280929190818152602001828054610fd7906148fd565b80156110245780601f10610ff957610100808354040283529160200191611024565b820191906000526020600020905b81548152906001019060200180831161100757829003601f168201915b50505050508152602001600282015481526020016003820154815260200160048201548152602001600582015481525050905090565b606060018054611069906148fd565b80601f0160208091040260200160405190810160405280929190818152602001828054611095906148fd565b80156110e25780601f106110b7576101008083540402835291602001916110e2565b820191906000526020600020905b8154815290600101906020018083116110c557829003601f168201915b5050505050905090565b6008602052806000526040600020600091509050806000015490806001018054611115906148fd565b80601f0160208091040260200160405190810160405280929190818152602001828054611141906148fd565b801561118e5780601f106111635761010080835404028352916020019161118e565b820191906000526020600020905b81548152906001019060200180831161117157829003601f168201915b5050505050908060020180546111a3906148fd565b80601f01602080910402602001604051908101604052809291908181526020018280546111cf906148fd565b801561121c5780601f106111f15761010080835404028352916020019161121c565b820191906000526020600020905b8154815290600101906020018083116111ff57829003601f168201915b505050505090806003018054611231906148fd565b80601f016020809104026020016040519081016040528092919081815260200182805461125d906148fd565b80156112aa5780601f1061127f576101008083540402835291602001916112aa565b820191906000526020600020905b81548152906001019060200180831161128d57829003601f168201915b50505050509080600401549080600501549080600601549080600701549080600801549080600901549080600a015490508b565b6112f06112e96123fa565b838361293e565b5050565b6113056112ff6123fa565b836124bb565b611344576040517f08c379a000000000000000000000000000000000000000000000000000000000815260040161133b906144e7565b60405180910390fd5b61135084848484612aab565b50505050565b60606007805480602002602001604051908101604052809291908181526020016000905b828210156115b357838290600052602060002090600b020160405180610160016040529081600082015481526020016001820180546113b8906148fd565b80601f01602080910402602001604051908101604052809291908181526020018280546113e4906148fd565b80156114315780601f1061140657610100808354040283529160200191611431565b820191906000526020600020905b81548152906001019060200180831161141457829003601f168201915b5050505050815260200160028201805461144a906148fd565b80601f0160208091040260200160405190810160405280929190818152602001828054611476906148fd565b80156114c35780601f10611498576101008083540402835291602001916114c3565b820191906000526020600020905b8154815290600101906020018083116114a657829003601f168201915b505050505081526020016003820180546114dc906148fd565b80601f0160208091040260200160405190810160405280929190818152602001828054611508906148fd565b80156115555780601f1061152a57610100808354040283529160200191611555565b820191906000526020600020905b81548152906001019060200180831161153857829003601f168201915b50505050508152602001600482015481526020016005820154815260200160068201548152602001600782015481526020016008820154815260200160098201548152602001600a820154815250508152602001906001019061137a565b50505050905090565b606060006008600084815260200190815260200160002060405180610160016040529081600082015481526020016001820180546115f9906148fd565b80601f0160208091040260200160405190810160405280929190818152602001828054611625906148fd565b80156116725780601f1061164757610100808354040283529160200191611672565b820191906000526020600020905b81548152906001019060200180831161165557829003601f168201915b5050505050815260200160028201805461168b906148fd565b80601f01602080910402602001604051908101604052809291908181526020018280546116b7906148fd565b80156117045780601f106116d957610100808354040283529160200191611704565b820191906000526020600020905b8154815290600101906020018083116116e757829003601f168201915b5050505050815260200160038201805461171d906148fd565b80601f0160208091040260200160405190810160405280929190818152602001828054611749906148fd565b80156117965780601f1061176b57610100808354040283529160200191611796565b820191906000526020600020905b81548152906001019060200180831161177957829003601f168201915b50505050508152602001600482015481526020016005820154815260200160068201548152602001600782015481526020016008820154815260200160098201548152602001600a82015481525050905060006117f68260800151612b07565b905060006118078360a00151612b07565b905060006118188460c00151612b07565b905060006118298560e00151612b07565b9050600061183b866101000151612b07565b9050600061184d876101200151612b07565b9050600061185f886101400151612b07565b905060006118b389602001516118748d612b07565b8b604001518c606001518c8c8b8b8e8b8d60405160200161189f9b9a99989796959493929190613f61565b604051602081830303815290604052612cb4565b90506000816040516020016118c8919061407e565b6040516020818303038152906040529050809a5050505050505050505050919050565b6118f3613395565b6000600f60003373ffffffffffffffffffffffffffffffffffffffff1673ffffffffffffffffffffffffffffffffffffffff1681526020019081526020016000205490506000811115611b6d57600860008281526020019081526020016000206040518061016001604052908160008201548152602001600182018054611979906148fd565b80601f01602080910402602001604051908101604052809291908181526020018280546119a5906148fd565b80156119f25780601f106119c7576101008083540402835291602001916119f2565b820191906000526020600020905b8154815290600101906020018083116119d557829003601f168201915b50505050508152602001600282018054611a0b906148fd565b80601f0160208091040260200160405190810160405280929190818152602001828054611a37906148fd565b8015611a845780601f10611a5957610100808354040283529160200191611a84565b820191906000526020600020905b815481529060010190602001808311611a6757829003601f168201915b50505050508152602001600382018054611a9d906148fd565b80601f0160208091040260200160405190810160405280929190818152602001828054611ac9906148fd565b8015611b165780601f10611aeb57610100808354040283529160200191611b16565b820191906000526020600020905b815481529060010190602001808311611af957829003601f168201915b50505050508152602001600482015481526020016005820154815260200160068201548152602001600782015481526020016008820154815260200160098201548152602001600a82015481525050915050611b7b565b611b75613395565b80925050505b90565b6000600560008473ffffffffffffffffffffffffffffffffffffffff1673ffffffffffffffffffffffffffffffffffffffff16815260200190815260200160002060008373ffffffffffffffffffffffffffffffffffffffff1673ffffffffffffffffffffffffffffffffffffffff16815260200190815260200160002060009054906101000a900460ff16905092915050565b6000611c1e6006612e72565b9050611c2a3382612e80565b60405180610160016040528083815260200160078481548110611c76577f4e487b7100000000000000000000000000000000000000000000000000000000600052603260045260246000fd5b90600052602060002090600b02016001018054611c92906148fd565b80601f0160208091040260200160405190810160405280929190818152602001828054611cbe906148fd565b8015611d0b5780601f10611ce057610100808354040283529160200191611d0b565b820191906000526020600020905b815481529060010190602001808311611cee57829003601f168201915b5050505050815260200160078481548110611d4f577f4e487b7100000000000000000000000000000000000000000000000000000000600052603260045260246000fd5b90600052602060002090600b02016002018054611d6b906148fd565b80601f0160208091040260200160405190810160405280929190818152602001828054611d97906148fd565b8015611de45780601f10611db957610100808354040283529160200191611de4565b820191906000526020600020905b815481529060010190602001808311611dc757829003601f168201915b5050505050815260200160078481548110611e28577f4e487b7100000000000000000000000000000000000000000000000000000000600052603260045260246000fd5b90600052602060002090600b02016003018054611e44906148fd565b80601f0160208091040260200160405190810160405280929190818152602001828054611e70906148fd565b8015611ebd5780601f10611e9257610100808354040283529160200191611ebd565b820191906000526020600020905b815481529060010190602001808311611ea057829003601f168201915b5050505050815260200160078481548110611f01577f4e487b7100000000000000000000000000000000000000000000000000000000600052603260045260246000fd5b90600052602060002090600b020160040154815260200160078481548110611f52577f4e487b7100000000000000000000000000000000000000000000000000000000600052603260045260246000fd5b90600052602060002090600b020160050154815260200160078481548110611fa3577f4e487b7100000000000000000000000000000000000000000000000000000000600052603260045260246000fd5b90600052602060002090600b020160060154815260200160078481548110611ff4577f4e487b7100000000000000000000000000000000000000000000000000000000600052603260045260246000fd5b90600052602060002090600b020160070154815260200160078481548110612045577f4e487b7100000000000000000000000000000000000000000000000000000000600052603260045260246000fd5b90600052602060002090600b020160080154815260200160078481548110612096577f4e487b7100000000000000000000000000000000000000000000000000000000600052603260045260246000fd5b90600052602060002090600b0201600901548152602001600784815481106120e7577f4e487b7100000000000000000000000000000000000000000000000000000000600052603260045260246000fd5b90600052602060002090600b0201600a0154815250600860008381526020019081526020016000206000820151816000015560208201518160010190805190602001906121359291906133ef565b5060408201518160020190805190602001906121529291906133ef565b50606082015181600301908051906020019061216f9291906133ef565b506080820151816004015560a0820151816005015560c0820151816006015560e082015181600701556101008201518160080155610120820151816009015561014082015181600a01559050506121df6040518060600160405280602e815260200161527e602e91398284612e9e565b80600f60003373ffffffffffffffffffffffffffffffffffffffff1673ffffffffffffffffffffffffffffffffffffffff1681526020019081526020016000208190555061222d600661230e565b7f3a8a89b59a31c39a36febecb987e0657ab7b7c73b60ebacb44dcb9886c2d5c8a33828460405161226093929190614107565b60405180910390a15050565b61230884848484604051602401612286949392919061419d565b6040516020818303038152906040527f8d142cdd000000000000000000000000000000000000000000000000000000007bffffffffffffffffffffffffffffffffffffffffffffffffffffffff19166020820180517bffffffffffffffffffffffffffffffffffffffffffffffffffffffff8381831617835250505050612f3d565b50505050565b6001816000016000828254019250508190555050565b60007f01ffc9a7000000000000000000000000000000000000000000000000000000007bffffffffffffffffffffffffffffffffffffffffffffffffffffffff1916827bffffffffffffffffffffffffffffffffffffffffffffffffffffffff1916149050919050565b60008073ffffffffffffffffffffffffffffffffffffffff166002600084815260200190815260200160002060009054906101000a900473ffffffffffffffffffffffffffffffffffffffff1673ffffffffffffffffffffffffffffffffffffffff1614159050919050565b600033905090565b816004600083815260200190815260200160002060006101000a81548173ffffffffffffffffffffffffffffffffffffffff021916908373ffffffffffffffffffffffffffffffffffffffff160217905550808273ffffffffffffffffffffffffffffffffffffffff16612475836108fc565b73ffffffffffffffffffffffffffffffffffffffff167f8c5be1e5ebec7d5bd14f71427d1e84f3dd0314c0f7b2291e5b200ac8c7c3b92560405160405180910390a45050565b60006124c68261238e565b612505576040517f08c379a00000000000000000000000000000000000000000000000000000000081526004016124fc906143e7565b60405180910390fd5b6000612510836108fc565b90508073ffffffffffffffffffffffffffffffffffffffff168473ffffffffffffffffffffffffffffffffffffffff16148061257f57508373ffffffffffffffffffffffffffffffffffffffff16612567846105a5565b73ffffffffffffffffffffffffffffffffffffffff16145b80612590575061258f8185611b7e565b5b91505092915050565b8273ffffffffffffffffffffffffffffffffffffffff166125b9826108fc565b73ffffffffffffffffffffffffffffffffffffffff161461260f576040517f08c379a000000000000000000000000000000000000000000000000000000000815260040161260690614367565b60405180910390fd5b600073ffffffffffffffffffffffffffffffffffffffff168273ffffffffffffffffffffffffffffffffffffffff16141561267f576040517f08c379a0000000000000000000000000000000000000000000000000000000008152600401612676906143a7565b60405180910390fd5b61268a838383612f66565b612695600082612402565b6001600360008573ffffffffffffffffffffffffffffffffffffffff1673ffffffffffffffffffffffffffffffffffffffff16815260200190815260200160002060008282546126e59190614813565b925050819055506001600360008473ffffffffffffffffffffffffffffffffffffffff1673ffffffffffffffffffffffffffffffffffffffff168152602001908152602001600020600082825461273c9190614732565b92505081905550816002600083815260200190815260200160002060006101000a81548173ffffffffffffffffffffffffffffffffffffffff021916908373ffffffffffffffffffffffffffffffffffffffff160217905550808273ffffffffffffffffffffffffffffffffffffffff168473ffffffffffffffffffffffffffffffffffffffff167fddf252ad1be2c89b69c2b068fc378daa952ba7f163c4a11628f55a4df523b3ef60405160405180910390a46127fb838383612f6b565b505050565b61289c8484848460405160240161281a94939291906141f7565b6040516020818303038152906040527fd5cf17d0000000000000000000000000000000000000000000000000000000007bffffffffffffffffffffffffffffffffffffffffffffffffffffffff19166020820180517bffffffffffffffffffffffffffffffffffffffffffffffffffffffff8381831617835250505050612f3d565b50505050565b61293a82826040516024016128b89291906142b9565b6040516020818303038152906040527f9710a9d0000000000000000000000000000000000000000000000000000000007bffffffffffffffffffffffffffffffffffffffffffffffffffffffff19166020820180517bffffffffffffffffffffffffffffffffffffffffffffffffffffffff8381831617835250505050612f3d565b5050565b8173ffffffffffffffffffffffffffffffffffffffff168373ffffffffffffffffffffffffffffffffffffffff1614156129ad576040517f08c379a00000000000000000000000000000000000000000000000000000000081526004016129a4906143c7565b60405180910390fd5b80600560008573ffffffffffffffffffffffffffffffffffffffff1673ffffffffffffffffffffffffffffffffffffffff16815260200190815260200160002060008473ffffffffffffffffffffffffffffffffffffffff1673ffffffffffffffffffffffffffffffffffffffff16815260200190815260200160002060006101000a81548160ff0219169083151502179055508173ffffffffffffffffffffffffffffffffffffffff168373ffffffffffffffffffffffffffffffffffffffff167f17307eab39ab6107e8899845ad3d59bd9653f200f220920489ca2b5937696c3183604051612a9e9190614160565b60405180910390a3505050565b612ab6848484612599565b612ac284848484612f70565b612b01576040517f08c379a0000000000000000000000000000000000000000000000000000000008152600401612af890614347565b60405180910390fd5b50505050565b60606000821415612b4f576040518060400160405280600181526020017f30000000000000000000000000000000000000000000000000000000000000008152509050612caf565b600082905060005b60008214612b81578080612b6a90614960565b915050600a82612b7a9190614788565b9150612b57565b60008167ffffffffffffffff811115612bc3577f4e487b7100000000000000000000000000000000000000000000000000000000600052604160045260246000fd5b6040519080825280601f01601f191660200182016040528015612bf55781602001600182028036833780820191505090505b5090505b60008514612ca857600182612c0e9190614813565b9150600a85612c1d91906149a9565b6030612c299190614732565b60f81b818381518110612c65577f4e487b7100000000000000000000000000000000000000000000000000000000600052603260045260246000fd5b60200101907effffffffffffffffffffffffffffffffffffffffffffffffffffffffffffff1916908160001a905350600a85612ca19190614788565b9450612bf9565b8093505050505b919050565b60606000825190506000811415612cdd5760405180602001604052806000815250915050612e6d565b60006003600283612cee9190614732565b612cf89190614788565b6004612d0491906147b9565b90506000602082612d159190614732565b67ffffffffffffffff811115612d54577f4e487b7100000000000000000000000000000000000000000000000000000000600052604160045260246000fd5b6040519080825280601f01601f191660200182016040528015612d865781602001600182028036833780820191505090505b5090506000604051806060016040528060408152602001615214604091399050600181016020830160005b86811015612e2a5760038101905062ffffff818a015116603f8160121c168401518060081b905060ff603f83600c1c1686015116810190508060081b905060ff603f8360061c1686015116810190508060081b905060ff603f831686015116810190508060e01b90508084526004840193505050612db1565b506003860660018114612e445760028114612e5457612e5f565b613d3d60f01b6002830352612e5f565b603d60f81b60018303525b508484525050819450505050505b919050565b600081600001549050919050565b612e9a828260405180602001604052806000815250613107565b5050565b612f38838383604051602401612eb6939291906142e9565b6040516020818303038152906040527f969cdd03000000000000000000000000000000000000000000000000000000007bffffffffffffffffffffffffffffffffffffffffffffffffffffffff19166020820180517bffffffffffffffffffffffffffffffffffffffffffffffffffffffff8381831617835250505050612f3d565b505050565b60008151905060006a636f6e736f6c652e6c6f679050602083016000808483855afa5050505050565b505050565b505050565b6000612f918473ffffffffffffffffffffffffffffffffffffffff16613162565b156130fa578373ffffffffffffffffffffffffffffffffffffffff1663150b7a02612fba6123fa565b8786866040518563ffffffff1660e01b8152600401612fdc94939291906140bb565b602060405180830381600087803b158015612ff657600080fd5b505af192505050801561302757506040513d601f19601f820116820180604052508101906130249190613733565b60015b6130aa573d8060008114613057576040519150601f19603f3d011682016040523d82523d6000602084013e61305c565b606091505b506000815114156130a2576040517f08c379a000000000000000000000000000000000000000000000000000000000815260040161309990614347565b60405180910390fd5b805181602001fd5b63150b7a0260e01b7bffffffffffffffffffffffffffffffffffffffffffffffffffffffff1916817bffffffffffffffffffffffffffffffffffffffffffffffffffffffff1916149150506130ff565b600190505b949350505050565b6131118383613185565b61311e6000848484612f70565b61315d576040517f08c379a000000000000000000000000000000000000000000000000000000000815260040161315490614347565b60405180910390fd5b505050565b6000808273ffffffffffffffffffffffffffffffffffffffff163b119050919050565b600073ffffffffffffffffffffffffffffffffffffffff168273ffffffffffffffffffffffffffffffffffffffff1614156131f5576040517f08c379a00000000000000000000000000000000000000000000000000000000081526004016131ec90614467565b60405180910390fd5b6131fe8161238e565b1561323e576040517f08c379a000000000000000000000000000000000000000000000000000000000815260040161323590614387565b60405180910390fd5b61324a60008383612f66565b6001600360008473ffffffffffffffffffffffffffffffffffffffff1673ffffffffffffffffffffffffffffffffffffffff168152602001908152602001600020600082825461329a9190614732565b92505081905550816002600083815260200190815260200160002060006101000a81548173ffffffffffffffffffffffffffffffffffffffff021916908373ffffffffffffffffffffffffffffffffffffffff160217905550808273ffffffffffffffffffffffffffffffffffffffff16600073ffffffffffffffffffffffffffffffffffffffff167fddf252ad1be2c89b69c2b068fc378daa952ba7f163c4a11628f55a4df523b3ef60405160405180910390a461335b60008383612f6b565b5050565b6040518060c001604052806060815260200160608152602001600081526020016000815260200160008152602001600081525090565b60405180610160016040528060008152602001606081526020016060815260200160608152602001600081526020016000815260200160008152602001600081526020016000815260200160008152602001600081525090565b8280546133fb906148fd565b90600052602060002090601f01602090048101928261341d5760008555613464565b82601f1061343657805160ff1916838001178555613464565b82800160010185558215613464579182015b82811115613463578251825591602001919060010190613448565b5b5090506134719190613475565b5090565b5b8082111561348e576000816000905550600101613476565b5090565b60006134a56134a084614674565b61464f565b9050828152602081018484840111156134bd57600080fd5b6134c88482856148bb565b509392505050565b6000813590506134df81615180565b92915050565b6000813590506134f481615197565b92915050565b600081359050613509816151ae565b92915050565b60008151905061351e816151ae565b92915050565b600082601f83011261353557600080fd5b8135613545848260208601613492565b91505092915050565b60008135905061355d816151c5565b92915050565b60006020828403121561357557600080fd5b6000613583848285016134d0565b91505092915050565b6000806040838503121561359f57600080fd5b60006135ad858286016134d0565b92505060206135be858286016134d0565b9150509250929050565b6000806000606084860312156135dd57600080fd5b60006135eb868287016134d0565b93505060206135fc868287016134d0565b925050604061360d8682870161354e565b9150509250925092565b6000806000806080858703121561362d57600080fd5b600061363b878288016134d0565b945050602061364c878288016134d0565b935050604061365d8782880161354e565b925050606085013567ffffffffffffffff81111561367a57600080fd5b61368687828801613524565b91505092959194509250565b600080604083850312156136a557600080fd5b60006136b3858286016134d0565b92505060206136c4858286016134e5565b9150509250929050565b600080604083850312156136e157600080fd5b60006136ef858286016134d0565b92505060206137008582860161354e565b9150509250929050565b60006020828403121561371c57600080fd5b600061372a848285016134fa565b91505092915050565b60006020828403121561374557600080fd5b60006137538482850161350f565b91505092915050565b60006020828403121561376e57600080fd5b600061377c8482850161354e565b91505092915050565b60006137918383613cb9565b905092915050565b6137a281614847565b82525050565b60006137b3826146b5565b6137bd81856146e3565b9350836020820285016137cf856146a5565b8060005b8581101561380b57848403895281516137ec8582613785565b94506137f7836146d6565b925060208a019950506001810190506137d3565b50829750879550505050505092915050565b61382681614859565b82525050565b6000613837826146c0565b61384181856146f4565b93506138518185602086016148ca565b61385a81614a96565b840191505092915050565b6000613870826146cb565b61387a8185614705565b935061388a8185602086016148ca565b61389381614a96565b840191505092915050565b60006138a9826146cb565b6138b38185614716565b93506138c38185602086016148ca565b6138cc81614a96565b840191505092915050565b60006138e2826146cb565b6138ec8185614727565b93506138fc8185602086016148ca565b80840191505092915050565b6000613915600983614727565b915061392082614aa7565b600982019050919050565b6000613938601983614716565b915061394382614ad0565b602082019050919050565b600061395b603283614716565b915061396682614af9565b604082019050919050565b600061397e600283614727565b915061398982614b48565b600282019050919050565b60006139a1602683614727565b91506139ac82614b71565b602682019050919050565b60006139c4602583614716565b91506139cf82614bc0565b604082019050919050565b60006139e7602d83614727565b91506139f282614c0f565b602d82019050919050565b6000613a0a601c83614716565b9150613a1582614c5e565b602082019050919050565b6000613a2d602483614716565b9150613a3882614c87565b604082019050919050565b6000613a50601983614716565b9150613a5b82614cd6565b602082019050919050565b6000613a73600f83614727565b9150613a7e82614cff565b600f82019050919050565b6000613a96605a83614727565b9150613aa182614d28565b605a82019050919050565b6000613ab9602c83614716565b9150613ac482614d9d565b604082019050919050565b6000613adc603883614716565b9150613ae782614dec565b604082019050919050565b6000613aff602a83614716565b9150613b0a82614e3b565b604082019050919050565b6000613b22602983614716565b9150613b2d82614e8a565b604082019050919050565b6000613b45602083614716565b9150613b5082614ed9565b602082019050919050565b6000613b68601583614716565b9150613b7382614f02565b602082019050919050565b6000613b8b602c83614716565b9150613b9682614f2b565b604082019050919050565b6000613bae602e83614727565b9150613bb982614f7a565b602e82019050919050565b6000613bd1602183614716565b9150613bdc82614fc9565b604082019050919050565b6000613bf4600583614727565b9150613bff82615018565b600582019050919050565b6000613c17600d83614727565b9150613c2282615041565b600d82019050919050565b6000613c3a601d83614727565b9150613c458261506a565b601d82019050919050565b6000613c5d603283614727565b9150613c6882615093565b603282019050919050565b6000613c80603183614716565b9150613c8b826150e2565b604082019050919050565b6000613ca3603d83614727565b9150613cae82615131565b603d82019050919050565b600061016083016000830151613cd26000860182613f43565b5060208301518482036020860152613cea8282613865565b91505060408301518482036040860152613d048282613865565b91505060608301518482036060860152613d1e8282613865565b9150506080830151613d336080860182613f43565b5060a0830151613d4660a0860182613f43565b5060c0830151613d5960c0860182613f43565b5060e0830151613d6c60e0860182613f43565b50610100830151613d81610100860182613f43565b50610120830151613d96610120860182613f43565b50610140830151613dab610140860182613f43565b508091505092915050565b600061016083016000830151613dcf6000860182613f43565b5060208301518482036020860152613de78282613865565b91505060408301518482036040860152613e018282613865565b91505060608301518482036060860152613e1b8282613865565b9150506080830151613e306080860182613f43565b5060a0830151613e4360a0860182613f43565b5060c0830151613e5660c0860182613f43565b5060e0830151613e6960e0860182613f43565b50610100830151613e7e610100860182613f43565b50610120830151613e93610120860182613f43565b50610140830151613ea8610140860182613f43565b508091505092915050565b600060c0830160008301518482036000860152613ed08282613865565b91505060208301518482036020860152613eea8282613865565b9150506040830151613eff6040860182613f43565b506060830151613f126060860182613f43565b506080830151613f256080860182613f43565b5060a0830151613f3860a0860182613f43565b508091505092915050565b613f4c816148b1565b82525050565b613f5b816148b1565b82525050565b6000613f6c82613908565b9150613f78828e6138d7565b9150613f8382613971565b9150613f8f828d6138d7565b9150613f9a82613a89565b9150613fa6828c6138d7565b9150613fb182613c0a565b9150613fbd828b6138d7565b9150613fc882613c96565b9150613fd4828a6138d7565b9150613fdf82613a66565b9150613feb82896138d7565b9150613ff682613c50565b915061400282886138d7565b915061400d82613a66565b915061401982876138d7565b915061402482613ba1565b915061403082866138d7565b915061403b826139da565b915061404782856138d7565b915061405282613994565b915061405e82846138d7565b915061406982613be7565b91508190509c9b505050505050505050505050565b600061408982613c2d565b915061409582846138d7565b915081905092915050565b60006020820190506140b56000830184613799565b92915050565b60006080820190506140d06000830187613799565b6140dd6020830186613799565b6140ea6040830185613f52565b81810360608301526140fc818461382c565b905095945050505050565b600060608201905061411c6000830186613799565b6141296020830185613f52565b6141366040830184613f52565b949350505050565b6000602082019050818103600083015261415881846137a8565b905092915050565b6000602082019050614175600083018461381d565b92915050565b60006020820190508181036000830152614195818461389e565b905092915050565b600060808201905081810360008301526141b7818761389e565b905081810360208301526141cb818661389e565b90506141da6040830185613f52565b81810360608301526141ec818461389e565b905095945050505050565b60006080820190508181036000830152614211818761389e565b90508181036020830152614225818661389e565b90506142346040830185613f52565b6142416060830184613f52565b95945050505050565b600060c0820190508181036000830152614264818961389e565b90508181036020830152614278818861389e565b90506142876040830187613f52565b6142946060830186613f52565b6142a16080830185613f52565b6142ae60a0830184613f52565b979650505050505050565b600060408201905081810360008301526142d3818561389e565b90506142e26020830184613f52565b9392505050565b60006060820190508181036000830152614303818661389e565b90506143126020830185613f52565b61431f6040830184613f52565b949350505050565b600060208201905081810360008301526143408161392b565b9050919050565b600060208201905081810360008301526143608161394e565b9050919050565b60006020820190508181036000830152614380816139b7565b9050919050565b600060208201905081810360008301526143a0816139fd565b9050919050565b600060208201905081810360008301526143c081613a20565b9050919050565b600060208201905081810360008301526143e081613a43565b9050919050565b6000602082019050818103600083015261440081613aac565b9050919050565b6000602082019050818103600083015261442081613acf565b9050919050565b6000602082019050818103600083015261444081613af2565b9050919050565b6000602082019050818103600083015261446081613b15565b9050919050565b6000602082019050818103600083015261448081613b38565b9050919050565b600060208201905081810360008301526144a081613b5b565b9050919050565b600060208201905081810360008301526144c081613b7e565b9050919050565b600060208201905081810360008301526144e081613bc4565b9050919050565b6000602082019050818103600083015261450081613c73565b9050919050565b600060208201905081810360008301526145218184613db6565b905092915050565b600060208201905081810360008301526145438184613eb3565b905092915050565b60006020820190506145606000830184613f52565b92915050565b60006101608201905061457c600083018e613f52565b818103602083015261458e818d61389e565b905081810360408301526145a2818c61389e565b905081810360608301526145b6818b61389e565b90506145c5608083018a613f52565b6145d260a0830189613f52565b6145df60c0830188613f52565b6145ec60e0830187613f52565b6145fa610100830186613f52565b614608610120830185613f52565b614616610140830184613f52565b9c9b505050505050505050505050565b600060408201905061463b6000830185613f52565b6146486020830184613f52565b9392505050565b600061465961466a565b9050614665828261492f565b919050565b6000604051905090565b600067ffffffffffffffff82111561468f5761468e614a67565b5b61469882614a96565b9050602081019050919050565b6000819050602082019050919050565b600081519050919050565b600081519050919050565b600081519050919050565b6000602082019050919050565b600082825260208201905092915050565b600082825260208201905092915050565b600082825260208201905092915050565b600082825260208201905092915050565b600081905092915050565b600061473d826148b1565b9150614748836148b1565b9250827fffffffffffffffffffffffffffffffffffffffffffffffffffffffffffffffff0382111561477d5761477c6149da565b5b828201905092915050565b6000614793826148b1565b915061479e836148b1565b9250826147ae576147ad614a09565b5b828204905092915050565b60006147c4826148b1565b91506147cf836148b1565b9250817fffffffffffffffffffffffffffffffffffffffffffffffffffffffffffffffff0483118215151615614808576148076149da565b5b828202905092915050565b600061481e826148b1565b9150614829836148b1565b92508282101561483c5761483b6149da565b5b828203905092915050565b600061485282614891565b9050919050565b60008115159050919050565b60007fffffffff0000000000000000000000000000000000000000000000000000000082169050919050565b600073ffffffffffffffffffffffffffffffffffffffff82169050919050565b6000819050919050565b82818337600083830152505050565b60005b838110156148e85780820151818401526020810190506148cd565b838111156148f7576000848401525b50505050565b6000600282049050600182168061491557607f821691505b6020821081141561492957614928614a38565b5b50919050565b61493882614a96565b810181811067ffffffffffffffff8211171561495757614956614a67565b5b80604052505050565b600061496b826148b1565b91507fffffffffffffffffffffffffffffffffffffffffffffffffffffffffffffffff82141561499e5761499d6149da565b5b600182019050919050565b60006149b4826148b1565b91506149bf836148b1565b9250826149cf576149ce614a09565b5b828206905092915050565b7f4e487b7100000000000000000000000000000000000000000000000000000000600052601160045260246000fd5b7f4e487b7100000000000000000000000000000000000000000000000000000000600052601260045260246000fd5b7f4e487b7100000000000000000000000000000000000000000000000000000000600052602260045260246000fd5b7f4e487b7100000000000000000000000000000000000000000000000000000000600052604160045260246000fd5b6000601f19601f8301169050919050565b7f7b226e616d65223a220000000000000000000000000000000000000000000000600082015250565b7f4572726f723a2043686172616374657220697320444541442e00000000000000600082015250565b7f4552433732313a207472616e7366657220746f206e6f6e20455243373231526560008201527f63656976657220696d706c656d656e7465720000000000000000000000000000602082015250565b7f2023000000000000000000000000000000000000000000000000000000000000600082015250565b7f207d2c207b202274726169745f74797065223a20224c6576656c222c2022766160008201527f6c7565223a200000000000000000000000000000000000000000000000000000602082015250565b7f4552433732313a207472616e736665722066726f6d20696e636f72726563742060008201527f6f776e6572000000000000000000000000000000000000000000000000000000602082015250565b7f207d2c207b202274726169745f74797065223a2022446f646765204368616e6360008201527f65222c202276616c7565223a2000000000000000000000000000000000000000602082015250565b7f4552433732313a20746f6b656e20616c7265616479206d696e74656400000000600082015250565b7f4552433732313a207472616e7366657220746f20746865207a65726f2061646460008201527f7265737300000000000000000000000000000000000000000000000000000000602082015250565b7f4552433732313a20617070726f766520746f2063616c6c657200000000000000600082015250565b7f2c20226d61785f76616c7565223a200000000000000000000000000000000000600082015250565b7f222c20226465736372697074696f6e223a20225468697320697320616e204e4660008201527f542074686174206c6574732070656f706c6520706c617920696e2053696d706c60208201527f652052504721222c2022696d616765223a2022697066733a2f2f000000000000604082015250565b7f4552433732313a206f70657261746f7220717565727920666f72206e6f6e657860008201527f697374656e7420746f6b656e0000000000000000000000000000000000000000602082015250565b7f4552433732313a20617070726f76652063616c6c6572206973206e6f74206f7760008201527f6e6572206e6f7220617070726f76656420666f7220616c6c0000000000000000602082015250565b7f4552433732313a2062616c616e636520717565727920666f7220746865207a6560008201527f726f206164647265737300000000000000000000000000000000000000000000602082015250565b7f4552433732313a206f776e657220717565727920666f72206e6f6e657869737460008201527f656e7420746f6b656e0000000000000000000000000000000000000000000000602082015250565b7f4552433732313a206d696e7420746f20746865207a65726f2061646472657373600082015250565b7f4572726f723a20456e656d7920697320444541442e0000000000000000000000600082015250565b7f4552433732313a20617070726f76656420717565727920666f72206e6f6e657860008201527f697374656e7420746f6b656e0000000000000000000000000000000000000000602082015250565b7f207d2c207b202274726169745f74797065223a202241747461636b2044616d6160008201527f6765222c202276616c7565223a20000000000000000000000000000000000000602082015250565b7f4552433732313a20617070726f76616c20746f2063757272656e74206f776e6560008201527f7200000000000000000000000000000000000000000000000000000000000000602082015250565b7f207d205d7d000000000000000000000000000000000000000000000000000000600082015250565b7f222c2022636c617373223a202200000000000000000000000000000000000000600082015250565b7f646174613a6170706c69636174696f6e2f6a736f6e3b6261736536342c000000600082015250565b7f207d2c207b202274726169745f74797065223a2022457870657269656e63652060008201527f506f696e7473222c202276616c7565223a200000000000000000000000000000602082015250565b7f4552433732313a207472616e736665722063616c6c6572206973206e6f74206f60008201527f776e6572206e6f7220617070726f766564000000000000000000000000000000602082015250565b7f222c202261747472696275746573223a205b207b202274726169745f7479706560008201527f223a20224865616c746820506f696e7473222c202276616c7565223a20000000602082015250565b61518981614847565b811461519457600080fd5b50565b6151a081614859565b81146151ab57600080fd5b50565b6151b781614865565b81146151c257600080fd5b50565b6151ce816148b1565b81146151d957600080fd5b5056fe506c61796572206c6576656c656420757021205265706c656e697368696e672048502e20506c61796572204850206973206e6f772025734142434445464748494a4b4c4d4e4f505152535455565758595a6162636465666768696a6b6c6d6e6f707172737475767778797a303132333435363738392b2f506c617965722061747461636b656420656e656d792e20456e656d79204850206973206e6f773a2025734d696e746564204e465420772f20746f6b656e496420257320616e6420636861726163746572496e646578202573456e656d792061747461636b656420506c617965722e20506c61796572204850206973206e6f773a2025730a506c6179657220772f206368617261637465722025732061626f757420746f2061747461636b2e2048617320257320485020616e64202573204144a2646970667358221220767ce2145172bf385a1956ad01cff887008d978a434055ca79da107c6224c39e64736f6c63430008040033446f6e6520696e697469616c697a696e6720257320772f2048502025732c20696d616765202573446f6e6520696e697469616c697a696e6720456e656d7920257320772f2048502025732c20696d67202573",
  "linkReferences": {},
  "deployedLinkReferences": {}
}